S11B100020071020781000A9FF8DF3EC8DF3EDA9008DF2EC608DE4107F
S11B10188CE3108EE21020C010A208A9408DFFED20DF10A9F08DFFECA1
S11B1030A9808DFFED20DF10A9408DFFEDBDE6102063108DFFECA9002A
S11B10488DFFED20DF10A9408DFFED20DF10CAD0E4ADE410ACE310AE27
S11B1060E21060488A8DE51068AABDF3108DE610ADE510AAADE610602A
S11B10788DE4108CE3108EE210A208A9408DFFED20DF10A9F08DFFECB0
S11B1090A9808DFFED20DF10A9408DFFEDBDE6108DFFECA9008DFFEDE4
S11B10A820DF10A9408DFFED20DF10CAD0E7ADE410ACE310AEE21060EB
S11B10C0A007A200BDEF104A4A4A4A99E71088BDEF10290F99E71088C3
S11B10D8E88AC904D0E660486860000000000084EEBB80BBEECB8423CF
S11B10F0456789FBB0EDF5B6D7DFF0FFF7FE9FCBBDCFCE808400EE9D7F
S9030000FC
