S1230800A90085B7D8A2FF9AA2C886B220740B20450CC943D012A21FBD1E0D9550CA10F8DC
S1230820A21B86DCA9CCD019C945D00E20BD0938A901E5B785B7A9EED007C940D00B20B188
S12308400A85FB85FA85F9D0BBC90DD00620570A4CF908C941F0034CF208A2004C0301A62D
S1230860B53059A5B0F008E008D004C5E6F02EF6E3C901D002F6E3501EA00FA5B1D960006A
S1230880F0038810F8B94F0DD5E4900494E695E4180875E595E528E004F003302E60A5E83E
S12308A085DDA90085B520570A20BD09200B0920BD09A90885B5203D0A4C0E0BE0F9D00B03
S12308C0A560C5B1D004A90085B46050FDA007A5B1D96000F00588F0F110F6B94F0DD5E2D0
S12308E0900295E2C6B5A9FBC5B5F00320310AE6B560C908B01220FE0AA21FB550C5FAF0D9
S123090003CA10F786FB86B04C0408A210A90095DECA10FBA91085B0C6B0100160202A0A24
S1230920A4B0A20886B6C0081041C006102EC004101FC001F009100E209909D0FBF0D9201B
S1230940A709D0FBF0D2A20486B620A709D0FBF0C720A709A5B6C904D0F7F0BCA21086B6C9
S1230960209909A5B6C908D0F7F0ADA20686B620D50950053003205F08202A0AC6B6A5B605
S1230980C905F0EB20D509708F308D205F08A5B129F0C920F0EE4C180920D5093003205F16
S12309A008202A0AC6B66020D509900250F9300708205F082850F0202A0AC6B660A20F38DB
S12309C0B460A977F5509560945038A977F5509550CA10EB60A5B1A6B6187D3E0D85B12929
S12309E088D042A5B1A220CA300ED550D0F9E0103033A97F69017001B8A5B53024C90810AE
S1230A00204808A9F985B585B420570A20BD09201409203A0A286885B5A5B4300438A9FF0E
S1230A206018A90060A9FF18B860A6B0B55085B16020570A20BD0920140920BD09BA86B3EB
S1230A40A6B29A6885B66885B0AA68955068AA6885B195504C7C0ABA86B3A6B29AA5B1487F
S1230A60A8A21FD550F003CA10F9A9CC95508A48A6B0B5509450488A48A5B648BA86B2A65E
S1230A80B39A60A4E4EC4F0DD004A900F00AA6E3D006A6EED002A9FFA20486B5C5FA900CB5
S1230AA0F00A85FAA5B085FBA5B185F9A92E4C5D0CA6DC301CA5F9DD5F0DD011CABD5F0DFB
S1230AC085FBCABD5F0D85F9CA86DCD01CA9FF85DCA20C86B586FAA214200D09A20486B5CA
S1230AE0200B09A6FAE00F9012A6FBB55085FA86B0A5F985B120570A4C0408A9FF60A204D7
S1230B0006F926FACAD0F905F985F985B16018A98065EB65EC65ED65E165DF38E5F0E5F16C
S1230B20E5E2E5E0E5DEE5EFE5E3B002A9004A18694065EC65ED38E5E44A18699065DD65BA
S1230B40DD65DD65DD65E138E5E4E5E4E5E5E5E5E5E0A6B1E033F016E034F012E022F00E41
S1230B60E025F00AA6B0F009B450C01010031869024C830A20130C20370C201E0CA0002034
S1230B80E50BA97C205D0CA21F98D550F040CA10F898290185FC984A4A4A4A29011865FC8D
S1230BA02901D003A92A2CA920205D0C205D0CC8982908F0CDA97C205D0C20300C20130CC3
S1230BC020E50B18986908A8C080F02BD0B4A5B7F005BDDD0CD003BDCD0C205D0CBDFD0CAA
S1230BE0205D0CD0CA8A48A219A92D205D0CCAD0FA68AA20130C60201E0CA5FB20690CA975
S1230C0020205D0CA5FA20690CA920205D0CA5F920690CA90D205D0CA90A205D0C60A200F1
S1230C20A920205D0C8A20690CE8E008D0F2F0E398297020690C60A200BD920CF006205D44
S1230C400CE8D0F560A93F205D0C20500C294F608E5C0CA201200301AE5C0C60008E5C0C89
S1230C60A202200301AE5C0C60484A4A4A4A20720C688C810C290FA8B9820CAC810C4C5D9A
S1230C800C00303132333435363738394142434445464D6963726F436865737320286329DE
S1230CA020313939362D32303032205065746572204A656E6E696E67732C70657465726A14
S1230CC04062656E6C6F2E636F6D0D0A005757575757575757575757575757575742424206
S1230CE042424242424242424242424242575757575757575757575757575757574B514347
S1230D00434242525250505050505050504B51434342425252505050505050505000030413
S1230D2000070205010610171116121514137374707772757176606761666265646300F056
S1230D40FF0110110FEFF1DFE1EEF2120E1F210B0A060604040404020202020202020299A5
S11E0D60250B25010033250736340D34340E52250D45350455220643330FCC02
S9
